{
  "_format": "hh-sol-artifact-1",
  "contractName": "ThriveManager",
  "sourceName": "contracts/ThriveManager.sol",
  "abi": [
    {
      "inputs": [],
      "stateMutability": "nonpayable",
      "type": "constructor"
    },
    {
      "inputs": [],
      "name": "_thriveToken",
      "outputs": [
        {
          "internalType": "contract Thrive",
          "name": "",
          "type": "address"
        }
      ],
      "stateMutability": "view",
      "type": "function"
    },
    {
      "inputs": [],
      "name": "getThriveToken",
      "outputs": [
        {
          "internalType": "contract Thrive",
          "name": "",
          "type": "address"
        }
      ],
      "stateMutability": "view",
      "type": "function"
    }
  ],
  "bytecode": "0x608060405234801561001057600080fd5b5060405161001d9061007e565b604051809103906000f080158015610039573d6000803e3d6000fd5b506000806101000a81548173ffffffffffffffffffffffffffffffffffffffff021916908373ffffffffffffffffffffffffffffffffffffffff16021790555061008b565b6131fd8061022e83390190565b6101948061009a6000396000f3fe608060405234801561001057600080fd5b50600436106100365760003560e01c8063d4333bb91461003b578063dd6ceb1a14610059575b600080fd5b610043610077565b6040516100509190610143565b60405180910390f35b61006161009b565b60405161006e9190610143565b60405180910390f35b60008054906101000a900473ffffffffffffffffffffffffffffffffffffffff1681565b60008060009054906101000a900473ffffffffffffffffffffffffffffffffffffffff16905090565b600073ffffffffffffffffffffffffffffffffffffffff82169050919050565b6000819050919050565b60006101096101046100ff846100c4565b6100e4565b6100c4565b9050919050565b600061011b826100ee565b9050919050565b600061012d82610110565b9050919050565b61013d81610122565b82525050565b60006020820190506101586000830184610134565b9291505056fea264697066735822122018302b9b40f2fe2bd3991ea85773a3b0c4a63e41843e8c1a76592f0f23b57b2d64736f6c634300081800336101606040523480156200001257600080fd5b506040518060400160405280600681526020017f5468726976650000000000000000000000000000000000000000000000000000815250806040518060400160405280600181526020017f31000000000000000000000000000000000000000000000000000000000000008152506040518060400160405280600681526020017f54687269766500000000000000000000000000000000000000000000000000008152506040518060400160405280600381526020017f54485600000000000000000000000000000000000000000000000000000000008152508160039081620000fd91906200074a565b5080600490816200010f91906200074a565b5050506000600560006101000a81548160ff021916908315150217905550620001436007836200022d60201b90919060201c565b6101208181525050620001616008826200022d60201b90919060201c565b6101408181525050818051906020012060e08181525050808051906020012061010081815250504660a08181525050620001a06200028560201b60201c565b608081815250503073ffffffffffffffffffffffffffffffffffffffff1660c08173ffffffffffffffffffffffffffffffffffffffff1681525050505050620001f36000801b33620002e260201b60201c565b50620002267f65d7a28e3265b37a6474929f336521b332c1681b933f6cb9f3376673440d862a33620002e260201b60201c565b5062000a54565b600060208351101562000253576200024b83620003e660201b60201c565b90506200027f565b8262000265836200045360201b60201c565b60000190816200027691906200074a565b5060ff60001b90505b92915050565b60007f8b73c3c69bb8fe3d512ecc4cf759cc79239f7b179b0ffacaa9a75d522b39400f60e051610100514630604051602001620002c7959493929190620008a2565b60405160208183030381529060405280519060200120905090565b6000620002f683836200045d60201b60201c565b620003db5760016006600085815260200190815260200160002060000160008473ffffffffffffffffffffffffffffffffffffffff1673ffffffffffffffffffffffffffffffffffffffff16815260200190815260200160002060006101000a81548160ff02191690831515021790555062000377620004c860201b60201c565b73ffffffffffffffffffffffffffffffffffffffff168273ffffffffffffffffffffffffffffffffffffffff16847f2f8788117e7eff1d82e926ec794901d17c78024a50270940304540a733656f0d60405160405180910390a460019050620003e0565b600090505b92915050565b600080829050601f815111156200043657826040517f305a27a90000000000000000000000000000000000000000000000000000000081526004016200042d91906200098e565b60405180910390fd5b8051816200044490620009e4565b60001c1760001b915050919050565b6000819050919050565b60006006600084815260200190815260200160002060000160008373ffffffffffffffffffffffffffffffffffffffff1673ffffffffffffffffffffffffffffffffffffffff16815260200190815260200160002060009054906101000a900460ff16905092915050565b600033905090565b600081519050919050565b7f4e487b7100000000000000000000000000000000000000000000000000000000600052604160045260246000fd5b7f4e487b7100000000000000000000000000000000000000000000000000000000600052602260045260246000fd5b600060028204905060018216806200055257607f821691505b6020821081036200056857620005676200050a565b5b50919050565b60008190508160005260206000209050919050565b60006020601f8301049050919050565b600082821b905092915050565b600060088302620005d27fffffffffffffffffffffffffffffffffffffffffffffffffffffffffffffffff8262000593565b620005de868362000593565b95508019841693508086168417925050509392505050565b6000819050919050565b6000819050919050565b60006200062b620006256200061f84620005f6565b62000600565b620005f6565b9050919050565b6000819050919050565b62000647836200060a565b6200065f620006568262000632565b848454620005a0565b825550505050565b600090565b6200067662000667565b620006838184846200063c565b505050565b5b81811015620006ab576200069f6000826200066c565b60018101905062000689565b5050565b601f821115620006fa57620006c4816200056e565b620006cf8462000583565b81016020851015620006df578190505b620006f7620006ee8562000583565b83018262000688565b50505b505050565b600082821c905092915050565b60006200071f60001984600802620006ff565b1980831691505092915050565b60006200073a83836200070c565b9150826002028217905092915050565b6200075582620004d0565b67ffffffffffffffff811115620007715762000770620004db565b5b6200077d825462000539565b6200078a828285620006af565b600060209050601f831160018114620007c25760008415620007ad578287015190505b620007b985826200072c565b86555062000829565b601f198416620007d2866200056e565b60005b82811015620007fc57848901518255600182019150602085019450602081019050620007d5565b868310156200081c578489015162000818601f8916826200070c565b8355505b6001600288020188555050505b505050505050565b6000819050919050565b620008468162000831565b82525050565b6200085781620005f6565b82525050565b600073ffffffffffffffffffffffffffffffffffffffff82169050919050565b60006200088a826200085d565b9050919050565b6200089c816200087d565b82525050565b600060a082019050620008b960008301886200083b565b620008c860208301876200083b565b620008d760408301866200083b565b620008e660608301856200084c565b620008f5608083018462000891565b9695505050505050565b600082825260208201905092915050565b60005b838110156200093057808201518184015260208101905062000913565b60008484015250505050565b6000601f19601f8301169050919050565b60006200095a82620004d0565b620009668185620008ff565b93506200097881856020860162000910565b62000983816200093c565b840191505092915050565b60006020820190508181036000830152620009aa81846200094d565b905092915050565b600081519050919050565b6000819050602082019050919050565b6000620009db825162000831565b80915050919050565b6000620009f182620009b2565b82620009fd84620009bd565b905062000a0a81620009cd565b9250602082101562000a4d5762000a487fffffffffffffffffffffffffffffffffffffffffffffffffffffffffffffffff8360200360080262000593565b831692505b5050919050565b60805160a05160c05160e05161010051610120516101405161274e62000aaf6000396000611333015260006112f8015260006116840152600061166301526000610fb80152600061100e01526000611037015261274e6000f3fe608060405234801561001057600080fd5b50600436106101a95760003560e01c806370a08231116100f9578063a217fddf11610097578063d539139311610071578063d5391393146104c4578063d547741f146104e2578063dd62ed3e146104fe578063e63ab1e91461052e576101a9565b8063a217fddf1461045a578063a9059cbb14610478578063d505accf146104a8576101a9565b80638456cb59116100d35780638456cb59146103de57806384b0196e146103e857806391d148541461040c57806395d89b411461043c576101a9565b806370a082311461036257806379cc6790146103925780637ecebe00146103ae576101a9565b80632f2ff15d1161016657806336568abe1161014057806336568abe146103025780633f4ba83a1461031e57806342966c68146103285780635c975abb14610344576101a9565b80632f2ff15d146102aa578063313ce567146102c65780633644e515146102e4576101a9565b806301ffc9a7146101ae57806306fdde03146101de578063095ea7b3146101fc57806318160ddd1461022c57806323b872dd1461024a578063248a9ca31461027a575b600080fd5b6101c860048036038101906101c39190611dfc565b61054c565b6040516101d59190611e44565b60405180910390f35b6101e66105c6565b6040516101f39190611eef565b60405180910390f35b61021660048036038101906102119190611fa5565b610658565b6040516102239190611e44565b60405180910390f35b61023461067b565b6040516102419190611ff4565b60405180910390f35b610264600480360381019061025f919061200f565b610685565b6040516102719190611e44565b60405180910390f35b610294600480360381019061028f9190612098565b6106b4565b6040516102a191906120d4565b60405180910390f35b6102c460048036038101906102bf91906120ef565b6106d4565b005b6102ce6106f6565b6040516102db919061214b565b60405180910390f35b6102ec6106ff565b6040516102f991906120d4565b60405180910390f35b61031c600480360381019061031791906120ef565b61070e565b005b610326610789565b005b610342600480360381019061033d9190612166565b6107be565b005b61034c6107d2565b6040516103599190611e44565b60405180910390f35b61037c60048036038101906103779190612193565b6107e9565b6040516103899190611ff4565b60405180910390f35b6103ac60048036038101906103a79190611fa5565b610831565b005b6103c860048036038101906103c39190612193565b610851565b6040516103d59190611ff4565b60405180910390f35b6103e6610863565b005b6103f0610898565b60405161040397969594939291906122c8565b60405180910390f35b610426600480360381019061042191906120ef565b610942565b6040516104339190611e44565b60405180910390f35b6104446109ad565b6040516104519190611eef565b60405180910390f35b610462610a3f565b60405161046f91906120d4565b60405180910390f35b610492600480360381019061048d9190611fa5565b610a46565b60405161049f9190611e44565b60405180910390f35b6104c260048036038101906104bd9190612378565b610a69565b005b6104cc610bb1565b6040516104d991906120d4565b60405180910390f35b6104fc60048036038101906104f791906120ef565b610bd5565b005b6105186004803603810190610513919061241a565b610bf7565b6040516105259190611ff4565b60405180910390f35b610536610c7e565b60405161054391906120d4565b60405180910390f35b60007f7965db0b000000000000000000000000000000000000000000000000000000007bffffffffffffffffffffffffffffffffffffffffffffffffffffffff1916827bffffffffffffffffffffffffffffffffffffffffffffffffffffffff191614806105bf57506105be82610ca2565b5b9050919050565b6060600380546105d590612489565b80601f016020809104026020016040519081016040528092919081815260200182805461060190612489565b801561064e5780601f106106235761010080835404028352916020019161064e565b820191906000526020600020905b81548152906001019060200180831161063157829003601f168201915b5050505050905090565b600080610663610d0c565b9050610670818585610d14565b600191505092915050565b6000600254905090565b600080610690610d0c565b905061069d858285610d26565b6106a8858585610dba565b60019150509392505050565b600060066000838152602001908152602001600020600101549050919050565b6106dd826106b4565b6106e681610eae565b6106f08383610ec2565b50505050565b60006012905090565b6000610709610fb4565b905090565b610716610d0c565b73ffffffffffffffffffffffffffffffffffffffff168173ffffffffffffffffffffffffffffffffffffffff161461077a576040517f6697b23200000000000000000000000000000000000000000000000000000000815260040160405180910390fd5b610784828261106b565b505050565b7f65d7a28e3265b37a6474929f336521b332c1681b933f6cb9f3376673440d862a6107b381610eae565b6107bb61115e565b50565b6107cf6107c9610d0c565b826111c1565b50565b6000600560009054906101000a900460ff16905090565b60008060008373ffffffffffffffffffffffffffffffffffffffff1673ffffffffffffffffffffffffffffffffffffffff168152602001908152602001600020549050919050565b6108438261083d610d0c565b83610d26565b61084d82826111c1565b5050565b600061085c82611243565b9050919050565b7f65d7a28e3265b37a6474929f336521b332c1681b933f6cb9f3376673440d862a61088d81610eae565b61089561128c565b50565b6000606080600080600060606108ac6112ef565b6108b461132a565b46306000801b600067ffffffffffffffff8111156108d5576108d46124ba565b5b6040519080825280602002602001820160405280156109035781602001602082028036833780820191505090505b507f0f00000000000000000000000000000000000000000000000000000000000000959493929190965096509650965096509650965090919293949596565b60006006600084815260200190815260200160002060000160008373ffffffffffffffffffffffffffffffffffffffff1673ffffffffffffffffffffffffffffffffffffffff16815260200190815260200160002060009054906101000a900460ff16905092915050565b6060600480546109bc90612489565b80601f01602080910402602001604051908101604052809291908181526020018280546109e890612489565b8015610a355780601f10610a0a57610100808354040283529160200191610a35565b820191906000526020600020905b815481529060010190602001808311610a1857829003601f168201915b5050505050905090565b6000801b81565b600080610a51610d0c565b9050610a5e818585610dba565b600191505092915050565b83421115610aae57836040517f62791302000000000000000000000000000000000000000000000000000000008152600401610aa59190611ff4565b60405180910390fd5b60007f6e71edae12b1b97f4d1f60370fef10105fa2faae0126114a169c64845d6126c9888888610add8c611365565b89604051602001610af3969594939291906124e9565b6040516020818303038152906040528051906020012090506000610b16826113bc565b90506000610b26828787876113d6565b90508973ffffffffffffffffffffffffffffffffffffffff168173ffffffffffffffffffffffffffffffffffffffff1614610b9a57808a6040517f4b800e46000000000000000000000000000000000000000000000000000000008152600401610b9192919061254a565b60405180910390fd5b610ba58a8a8a610d14565b50505050505050505050565b7f9f2df0fed2c77648de5860a4cc508cd0818c85b8b8a1ab4ceeef8d981c8956a681565b610bde826106b4565b610be781610eae565b610bf1838361106b565b50505050565b6000600160008473ffffffffffffffffffffffffffffffffffffffff1673ffffffffffffffffffffffffffffffffffffffff16815260200190815260200160002060008373ffffffffffffffffffffffffffffffffffffffff1673ffffffffffffffffffffffffffffffffffffffff16815260200190815260200160002054905092915050565b7f65d7a28e3265b37a6474929f336521b332c1681b933f6cb9f3376673440d862a81565b60007f01ffc9a7000000000000000000000000000000000000000000000000000000007bffffffffffffffffffffffffffffffffffffffffffffffffffffffff1916827bffffffffffffffffffffffffffffffffffffffffffffffffffffffff1916149050919050565b600033905090565b610d218383836001611406565b505050565b6000610d328484610bf7565b90507fffffffffffffffffffffffffffffffffffffffffffffffffffffffffffffffff8114610db45781811015610da4578281836040517ffb8f41b2000000000000000000000000000000000000000000000000000000008152600401610d9b93929190612573565b60405180910390fd5b610db384848484036000611406565b5b50505050565b600073ffffffffffffffffffffffffffffffffffffffff168373ffffffffffffffffffffffffffffffffffffffff1603610e2c5760006040517f96c6fd1e000000000000000000000000000000000000000000000000000000008152600401610e2391906125aa565b60405180910390fd5b600073ffffffffffffffffffffffffffffffffffffffff168273ffffffffffffffffffffffffffffffffffffffff1603610e9e5760006040517fec442f05000000000000000000000000000000000000000000000000000000008152600401610e9591906125aa565b60405180910390fd5b610ea98383836115dd565b505050565b610ebf81610eba610d0c565b6115ed565b50565b6000610ece8383610942565b610fa95760016006600085815260200190815260200160002060000160008473ffffffffffffffffffffffffffffffffffffffff1673ffffffffffffffffffffffffffffffffffffffff16815260200190815260200160002060006101000a81548160ff021916908315150217905550610f46610d0c565b73ffffffffffffffffffffffffffffffffffffffff168273ffffffffffffffffffffffffffffffffffffffff16847f2f8788117e7eff1d82e926ec794901d17c78024a50270940304540a733656f0d60405160405180910390a460019050610fae565b600090505b92915050565b60007f000000000000000000000000000000000000000000000000000000000000000073ffffffffffffffffffffffffffffffffffffffff163073ffffffffffffffffffffffffffffffffffffffff1614801561103057507f000000000000000000000000000000000000000000000000000000000000000046145b1561105d577f00000000000000000000000000000000000000000000000000000000000000009050611068565b61106561163e565b90505b90565b60006110778383610942565b156111535760006006600085815260200190815260200160002060000160008473ffffffffffffffffffffffffffffffffffffffff1673ffffffffffffffffffffffffffffffffffffffff16815260200190815260200160002060006101000a81548160ff0219169083151502179055506110f0610d0c565b73ffffffffffffffffffffffffffffffffffffffff168273ffffffffffffffffffffffffffffffffffffffff16847ff6391f5c32d9c69d2a47ea670b442974b53935d1edc7fd64eb21e047a839171b60405160405180910390a460019050611158565b600090505b92915050565b6111666116d4565b6000600560006101000a81548160ff0219169083151502179055507f5db9ee0a495bf2e6ff9c91a7834c1ba4fdd244a5e8aa4e537bd38aeae4b073aa6111aa610d0c565b6040516111b791906125aa565b60405180910390a1565b600073ffffffffffffffffffffffffffffffffffffffff168273ffffffffffffffffffffffffffffffffffffffff16036112335760006040517f96c6fd1e00000000000000000000000000000000000000000000000000000000815260040161122a91906125aa565b60405180910390fd5b61123f826000836115dd565b5050565b6000600960008373ffffffffffffffffffffffffffffffffffffffff1673ffffffffffffffffffffffffffffffffffffffff168152602001908152602001600020549050919050565b611294611714565b6001600560006101000a81548160ff0219169083151502179055507f62e78cea01bee320cd4e420270b5ea74000d11b0c9f74754ebdbfc544b05a2586112d8610d0c565b6040516112e591906125aa565b60405180910390a1565b606061132560077f000000000000000000000000000000000000000000000000000000000000000061175590919063ffffffff16565b905090565b606061136060087f000000000000000000000000000000000000000000000000000000000000000061175590919063ffffffff16565b905090565b6000600960008373ffffffffffffffffffffffffffffffffffffffff1673ffffffffffffffffffffffffffffffffffffffff1681526020019081526020016000206000815480929190600101919050559050919050565b60006113cf6113c9610fb4565b83611805565b9050919050565b6000806000806113e888888888611846565b9250925092506113f8828261193a565b829350505050949350505050565b600073ffffffffffffffffffffffffffffffffffffffff168473ffffffffffffffffffffffffffffffffffffffff16036114785760006040517fe602df0500000000000000000000000000000000000000000000000000000000815260040161146f91906125aa565b60405180910390fd5b600073ffffffffffffffffffffffffffffffffffffffff168373ffffffffffffffffffffffffffffffffffffffff16036114ea5760006040517f94280d620000000000000000000000000000000000000000000000000000000081526004016114e191906125aa565b60405180910390fd5b81600160008673ffffffffffffffffffffffffffffffffffffffff1673ffffffffffffffffffffffffffffffffffffffff16815260200190815260200160002060008573ffffffffffffffffffffffffffffffffffffffff1673ffffffffffffffffffffffffffffffffffffffff1681526020019081526020016000208190555080156115d7578273ffffffffffffffffffffffffffffffffffffffff168473ffffffffffffffffffffffffffffffffffffffff167f8c5be1e5ebec7d5bd14f71427d1e84f3dd0314c0f7b2291e5b200ac8c7c3b925846040516115ce9190611ff4565b60405180910390a35b50505050565b6115e8838383611a9e565b505050565b6115f78282610942565b61163a5780826040517fe2517d3f0000000000000000000000000000000000000000000000000000000081526004016116319291906125c5565b60405180910390fd5b5050565b60007f8b73c3c69bb8fe3d512ecc4cf759cc79239f7b179b0ffacaa9a75d522b39400f7f00000000000000000000000000000000000000000000000000000000000000007f000000000000000000000000000000000000000000000000000000000000000046306040516020016116b99594939291906125ee565b60405160208183030381529060405280519060200120905090565b6116dc6107d2565b611712576040517f8dfc202b00000000000000000000000000000000000000000000000000000000815260040160405180910390fd5b565b61171c6107d2565b15611753576040517fd93c066500000000000000000000000000000000000000000000000000000000815260040160405180910390fd5b565b606060ff60001b83146117725761176b83611ab6565b90506117ff565b81805461177e90612489565b80601f01602080910402602001604051908101604052809291908181526020018280546117aa90612489565b80156117f75780601f106117cc576101008083540402835291602001916117f7565b820191906000526020600020905b8154815290600101906020018083116117da57829003601f168201915b505050505090505b92915050565b60006040517f190100000000000000000000000000000000000000000000000000000000000081528360028201528260228201526042812091505092915050565b60008060007f7fffffffffffffffffffffffffffffff5d576e7357a4501ddfe92f46681b20a08460001c1115611886576000600385925092509250611930565b6000600188888888604051600081526020016040526040516118ab9493929190612641565b6020604051602081039080840390855afa1580156118cd573d6000803e3d6000fd5b505050602060405103519050600073ffffffffffffffffffffffffffffffffffffffff168173ffffffffffffffffffffffffffffffffffffffff160361192157600060016000801b93509350935050611930565b8060008060001b935093509350505b9450945094915050565b6000600381111561194e5761194d612686565b5b82600381111561196157611960612686565b5b0315611a9a576001600381111561197b5761197a612686565b5b82600381111561198e5761198d612686565b5b036119c5576040517ff645eedf00000000000000000000000000000000000000000000000000000000815260040160405180910390fd5b600260038111156119d9576119d8612686565b5b8260038111156119ec576119eb612686565b5b03611a31578060001c6040517ffce698f7000000000000000000000000000000000000000000000000000000008152600401611a289190611ff4565b60405180910390fd5b600380811115611a4457611a43612686565b5b826003811115611a5757611a56612686565b5b03611a9957806040517fd78bce0c000000000000000000000000000000000000000000000000000000008152600401611a9091906120d4565b60405180910390fd5b5b5050565b611aa6611714565b611ab1838383611b2a565b505050565b60606000611ac383611d4f565b90506000602067ffffffffffffffff811115611ae257611ae16124ba565b5b6040519080825280601f01601f191660200182016040528015611b145781602001600182028036833780820191505090505b5090508181528360208201528092505050919050565b600073ffffffffffffffffffffffffffffffffffffffff168373ffffffffffffffffffffffffffffffffffffffff1603611b7c578060026000828254611b7091906126e4565b92505081905550611c4f565b60008060008573ffffffffffffffffffffffffffffffffffffffff1673ffffffffffffffffffffffffffffffffffffffff16815260200190815260200160002054905081811015611c08578381836040517fe450d38c000000000000000000000000000000000000000000000000000000008152600401611bff93929190612573565b60405180910390fd5b8181036000808673ffffffffffffffffffffffffffffffffffffffff1673ffffffffffffffffffffffffffffffffffffffff16815260200190815260200160002081905550505b600073ffffffffffffffffffffffffffffffffffffffff168273ffffffffffffffffffffffffffffffffffffffff1603611c985780600260008282540392505081905550611ce5565b806000808473ffffffffffffffffffffffffffffffffffffffff1673ffffffffffffffffffffffffffffffffffffffff168152602001908152602001600020600082825401925050819055505b8173ffffffffffffffffffffffffffffffffffffffff168373ffffffffffffffffffffffffffffffffffffffff167fddf252ad1be2c89b69c2b068fc378daa952ba7f163c4a11628f55a4df523b3ef83604051611d429190611ff4565b60405180910390a3505050565b60008060ff8360001c169050601f811115611d96576040517fb3512b0c00000000000000000000000000000000000000000000000000000000815260040160405180910390fd5b80915050919050565b600080fd5b60007fffffffff0000000000000000000000000000000000000000000000000000000082169050919050565b611dd981611da4565b8114611de457600080fd5b50565b600081359050611df681611dd0565b92915050565b600060208284031215611e1257611e11611d9f565b5b6000611e2084828501611de7565b91505092915050565b60008115159050919050565b611e3e81611e29565b82525050565b6000602082019050611e596000830184611e35565b92915050565b600081519050919050565b600082825260208201905092915050565b60005b83811015611e99578082015181840152602081019050611e7e565b60008484015250505050565b6000601f19601f8301169050919050565b6000611ec182611e5f565b611ecb8185611e6a565b9350611edb818560208601611e7b565b611ee481611ea5565b840191505092915050565b60006020820190508181036000830152611f098184611eb6565b905092915050565b600073ffffffffffffffffffffffffffffffffffffffff82169050919050565b6000611f3c82611f11565b9050919050565b611f4c81611f31565b8114611f5757600080fd5b50565b600081359050611f6981611f43565b92915050565b6000819050919050565b611f8281611f6f565b8114611f8d57600080fd5b50565b600081359050611f9f81611f79565b92915050565b60008060408385031215611fbc57611fbb611d9f565b5b6000611fca85828601611f5a565b9250506020611fdb85828601611f90565b9150509250929050565b611fee81611f6f565b82525050565b60006020820190506120096000830184611fe5565b92915050565b60008060006060848603121561202857612027611d9f565b5b600061203686828701611f5a565b935050602061204786828701611f5a565b925050604061205886828701611f90565b9150509250925092565b6000819050919050565b61207581612062565b811461208057600080fd5b50565b6000813590506120928161206c565b92915050565b6000602082840312156120ae576120ad611d9f565b5b60006120bc84828501612083565b91505092915050565b6120ce81612062565b82525050565b60006020820190506120e960008301846120c5565b92915050565b6000806040838503121561210657612105611d9f565b5b600061211485828601612083565b925050602061212585828601611f5a565b9150509250929050565b600060ff82169050919050565b6121458161212f565b82525050565b6000602082019050612160600083018461213c565b92915050565b60006020828403121561217c5761217b611d9f565b5b600061218a84828501611f90565b91505092915050565b6000602082840312156121a9576121a8611d9f565b5b60006121b784828501611f5a565b91505092915050565b60007fff0000000000000000000000000000000000000000000000000000000000000082169050919050565b6121f5816121c0565b82525050565b61220481611f31565b82525050565b600081519050919050565b600082825260208201905092915050565b6000819050602082019050919050565b61223f81611f6f565b82525050565b60006122518383612236565b60208301905092915050565b6000602082019050919050565b60006122758261220a565b61227f8185612215565b935061228a83612226565b8060005b838110156122bb5781516122a28882612245565b97506122ad8361225d565b92505060018101905061228e565b5085935050505092915050565b600060e0820190506122dd600083018a6121ec565b81810360208301526122ef8189611eb6565b905081810360408301526123038188611eb6565b90506123126060830187611fe5565b61231f60808301866121fb565b61232c60a08301856120c5565b81810360c083015261233e818461226a565b905098975050505050505050565b6123558161212f565b811461236057600080fd5b50565b6000813590506123728161234c565b92915050565b600080600080600080600060e0888a03121561239757612396611d9f565b5b60006123a58a828b01611f5a565b97505060206123b68a828b01611f5a565b96505060406123c78a828b01611f90565b95505060606123d88a828b01611f90565b94505060806123e98a828b01612363565b93505060a06123fa8a828b01612083565b92505060c061240b8a828b01612083565b91505092959891949750929550565b6000806040838503121561243157612430611d9f565b5b600061243f85828601611f5a565b925050602061245085828601611f5a565b9150509250929050565b7f4e487b7100000000000000000000000000000000000000000000000000000000600052602260045260246000fd5b600060028204905060018216806124a157607f821691505b6020821081036124b4576124b361245a565b5b50919050565b7f4e487b7100000000000000000000000000000000000000000000000000000000600052604160045260246000fd5b600060c0820190506124fe60008301896120c5565b61250b60208301886121fb565b61251860408301876121fb565b6125256060830186611fe5565b6125326080830185611fe5565b61253f60a0830184611fe5565b979650505050505050565b600060408201905061255f60008301856121fb565b61256c60208301846121fb565b9392505050565b600060608201905061258860008301866121fb565b6125956020830185611fe5565b6125a26040830184611fe5565b949350505050565b60006020820190506125bf60008301846121fb565b92915050565b60006040820190506125da60008301856121fb565b6125e760208301846120c5565b9392505050565b600060a08201905061260360008301886120c5565b61261060208301876120c5565b61261d60408301866120c5565b61262a6060830185611fe5565b61263760808301846121fb565b9695505050505050565b600060808201905061265660008301876120c5565b612663602083018661213c565b61267060408301856120c5565b61267d60608301846120c5565b95945050505050565b7f4e487b7100000000000000000000000000000000000000000000000000000000600052602160045260246000fd5b7f4e487b7100000000000000000000000000000000000000000000000000000000600052601160045260246000fd5b60006126ef82611f6f565b91506126fa83611f6f565b9250828201905080821115612712576127116126b5565b5b9291505056fea26469706673582212204b1cb1fe9c794233bfc9bc63d5956fc03c26fae2bdd7e6a28c6cc66174d18ed964736f6c63430008180033",
  "linkReferences": {},
  "deployedLinkReferences": {}
}